{
  "transactions": [
    {
      "hash": "0x3898ed0e4d363018606ca3e41fe475c7f1b8d7162f915995210473f6d6c28505",
      "transactionType": "CALL",
      "contractName": null,
      "contractAddress": "0x48CBF95689F7B2769f18eE397BB950d9CE69599D",
      "function": "buy(address,uint256)",
      "arguments": [
        "0x0bC0cdFDd36fc411C83221A348230Da5D3DfA89e",
        "1423"
      ],
      "transaction": {
        "type": "0x00",
        "from": "0x3a47a5be317dcf439f91d0a45716b64547f21bc1",
        "to": "0x48cbf95689f7b2769f18ee397bb950d9ce69599d",
        "gas": "0x276bd",
        "value": "0xde0b6b3a7640000",
        "data": "0xcce7ec130000000000000000000000000bc0cdfdd36fc411c83221a348230da5d3dfa89e000000000000000000000000000000000000000000000000000000000000058f",
        "nonce": "0x946"
      },
      "additionalContracts": [],
      "isFixedGasLimit": false
    }
  ],
  "receipts": [],
  "libraries": [],
  "pending": [
    "0x3898ed0e4d363018606ca3e41fe475c7f1b8d7162f915995210473f6d6c28505"
  ],
  "returns": {},
  "timestamp": 1703854017,
  "chain": 1666600000,
  "multi": false,
  "commit": "5445cfb"
}