{
  "transactions": [
    {
      "hash": "0x3898ed0e4d363018606ca3e41fe475c7f1b8d7162f915995210473f6d6c28505",
      "transactionType": "CALL",
      "contractName": null,
      "contractAddress": "0x48CBF95689F7B2769f18eE397BB950d9CE69599D",
      "function": "buy(address,uint256)",
      "arguments": [
        "0x0bC0cdFDd36fc411C83221A348230Da5D3DfA89e",
        "1423"
      ],
      "transaction": {
        "type": "0x00",
        "from": "0x3a47a5be317dcf439f91d0a45716b64547f21bc1",
        "to": "0x48cbf95689f7b2769f18ee397bb950d9ce69599d",
        "gas": "0x276bd",
        "value": "0xde0b6b3a7640000",
        "data": "0xcce7ec130000000000000000000000000bc0cdfdd36fc411c83221a348230da5d3dfa89e000000000000000000000000000000000000000000000000000000000000058f",
        "nonce": "0x946"
      },
      "additionalContracts": [],
      "isFixedGasLimit": false
    }
  ],
  "receipts": [
    {
      "transactionHash": "0x3898ed0e4d363018606ca3e41fe475c7f1b8d7162f915995210473f6d6c28505",
      "transactionIndex": "0x0",
      "blockHash": "0x4eef2492d31273f83b0efcacb63fe4d88442d8b8b87a24bc1207742385e0ab54",
      "blockNumber": "0x313ead2",
      "from": "0x3A47a5be317DCF439F91D0A45716B64547F21bc1",
      "to": "0x48CBF95689F7B2769f18eE397BB950d9CE69599D",
      "cumulativeGasUsed": "0x152ad",
      "gasUsed": "0x152ad",
      "contractAddress": null,
      "logs": [
        {
          "address": "0x0bC0cdFDd36fc411C83221A348230Da5D3DfA89e",
          "topics": [
            "0x8c5be1e5ebec7d5bd14f71427d1e84f3dd0314c0f7b2291e5b200ac8c7c3b925",
            "0x0000000000000000000000003b6c33a0d24d2f338aeded306c6d271a1d4d1ba1",
            "0x0000000000000000000000000000000000000000000000000000000000000000",
            "0x000000000000000000000000000000000000000000000000000000000000058f"
          ],
          "data": "0x",
          "blockHash": "0x4eef2492d31273f83b0efcacb63fe4d88442d8b8b87a24bc1207742385e0ab54",
          "blockNumber": "0x313ead2",
          "transactionHash": "0x3898ed0e4d363018606ca3e41fe475c7f1b8d7162f915995210473f6d6c28505",
          "transactionIndex": "0x0",
          "logIndex": "0x0",
          "removed": false
        },
        {
          "address": "0x0bC0cdFDd36fc411C83221A348230Da5D3DfA89e",
          "topics": [
            "0xddf252ad1be2c89b69c2b068fc378daa952ba7f163c4a11628f55a4df523b3ef",
            "0x0000000000000000000000003b6c33a0d24d2f338aeded306c6d271a1d4d1ba1",
            "0x0000000000000000000000003a47a5be317dcf439f91d0a45716b64547f21bc1",
            "0x000000000000000000000000000000000000000000000000000000000000058f"
          ],
          "data": "0x",
          "blockHash": "0x4eef2492d31273f83b0efcacb63fe4d88442d8b8b87a24bc1207742385e0ab54",
          "blockNumber": "0x313ead2",
          "transactionHash": "0x3898ed0e4d363018606ca3e41fe475c7f1b8d7162f915995210473f6d6c28505",
          "transactionIndex": "0x0",
          "logIndex": "0x1",
          "removed": false
        },
        {
          "address": "0x48CBF95689F7B2769f18eE397BB950d9CE69599D",
          "topics": [
            "0xaf04d0c0cb708af9660465a0ccddafd6f15c37babeed996437bfac5d43deae76",
            "0x0000000000000000000000000bc0cdfdd36fc411c83221a348230da5d3dfa89e",
            "0x000000000000000000000000000000000000000000000000000000000000058f"
          ],
          "data": "0x0000000000000000000000000000000000000000000000000de0b6b3a7640000",
          "blockHash": "0x4eef2492d31273f83b0efcacb63fe4d88442d8b8b87a24bc1207742385e0ab54",
          "blockNumber": "0x313ead2",
          "transactionHash": "0x3898ed0e4d363018606ca3e41fe475c7f1b8d7162f915995210473f6d6c28505",
          "transactionIndex": "0x0",
          "logIndex": "0x2",
          "removed": false
        }
      ],
      "status": "0x1",
      "logsBloom": "0x00000000000000000000000000000000000000000100000800000000000000000004000000000200000000000000000000000000000000000000000000200000000000000000020800000008100000800081000000000000000000040000000000000000020000000000000000080800000000000000000000000210000000000000000000000008000000000008000000000000000200000000000000000000020000000000000000000000000000000000400000400000000000000800000000000002000000000000000000000001000000000000000000000000000020000010000000000000000000000000000000000000001000000000000000000000"
    }
  ],
  "libraries": [],
  "pending": [],
  "returns": {},
  "timestamp": 1703854023,
  "chain": 1666600000,
  "multi": false,
  "commit": "5445cfb"
}