{
  "transactions": [
    {
      "hash": "0xbe53fc95cf9ec3ec13dcf52f9658aacd5a9db37e70adcd04b13cd1b6aaa4fd3c",
      "transactionType": "CALL",
      "contractName": null,
      "contractAddress": "0x0bC0cdFDd36fc411C83221A348230Da5D3DfA89e",
      "function": "setApprovalForAll(address,bool)",
      "arguments": [
        "0x48CBF95689F7B2769f18eE397BB950d9CE69599D",
        "true"
      ],
      "transaction": {
        "type": "0x00",
        "from": "0x3a47a5be317dcf439f91d0a45716b64547f21bc1",
        "to": "0x0bc0cdfdd36fc411c83221a348230da5d3dfa89e",
        "gas": "0x1214e",
        "value": "0x0",
        "data": "0xa22cb46500000000000000000000000048cbf95689f7b2769f18ee397bb950d9ce69599d0000000000000000000000000000000000000000000000000000000000000001",
        "nonce": "0x948"
      },
      "additionalContracts": [],
      "isFixedGasLimit": false
    },
    {
      "hash": "0x8a56eb07dc083d258e65551d44d7a210163b3adc110d1977b7eb2a8ea4eb36f6",
      "transactionType": "CALL",
      "contractName": null,
      "contractAddress": "0x48CBF95689F7B2769f18eE397BB950d9CE69599D",
      "function": "setToSell(address,uint256,uint256)",
      "arguments": [
        "0x0bC0cdFDd36fc411C83221A348230Da5D3DfA89e",
        "1423",
        "100000000000000000000"
      ],
      "transaction": {
        "type": "0x00",
        "from": "0x3a47a5be317dcf439f91d0a45716b64547f21bc1",
        "to": "0x48cbf95689f7b2769f18ee397bb950d9ce69599d",
        "gas": "0x16b8e",
        "value": "0x0",
        "data": "0x2295c3bd0000000000000000000000000bc0cdfdd36fc411c83221a348230da5d3dfa89e000000000000000000000000000000000000000000000000000000000000058f0000000000000000000000000000000000000000000000056bc75e2d63100000",
        "nonce": "0x949"
      },
      "additionalContracts": [],
      "isFixedGasLimit": false
    }
  ],
  "receipts": [],
  "libraries": [],
  "pending": [
    "0xbe53fc95cf9ec3ec13dcf52f9658aacd5a9db37e70adcd04b13cd1b6aaa4fd3c",
    "0x8a56eb07dc083d258e65551d44d7a210163b3adc110d1977b7eb2a8ea4eb36f6"
  ],
  "returns": {},
  "timestamp": 1703854851,
  "chain": 1666600000,
  "multi": false,
  "commit": "5445cfb"
}