{
  "transactions": [
    {
      "hash": "0x8b6fc5d6222fb596966d7205f88759eb4b2fb6826e2674972cf530b62dd19bb2",
      "transactionType": "CALL",
      "contractName": null,
      "contractAddress": "0x0bC0cdFDd36fc411C83221A348230Da5D3DfA89e",
      "function": "setApprovalForAll(address,bool)",
      "arguments": [
        "0x9491EFbe11C5A99641861339a9e7A1e5c72aff18",
        "true"
      ],
      "transaction": {
        "type": "0x00",
        "from": "0x3a47a5be317dcf439f91d0a45716b64547f21bc1",
        "to": "0x0bc0cdfdd36fc411c83221a348230da5d3dfa89e",
        "gas": "0xb5ef",
        "value": "0x0",
        "data": "0xa22cb4650000000000000000000000009491efbe11c5a99641861339a9e7a1e5c72aff180000000000000000000000000000000000000000000000000000000000000001",
        "nonce": "0x950"
      },
      "additionalContracts": [],
      "isFixedGasLimit": false
    },
    {
      "hash": "0x536938cbfdb5c7e167aa8ad131c63c6b3f2e438e1967881ebc1f39fec37030ef",
      "transactionType": "CALL",
      "contractName": null,
      "contractAddress": "0x9491EFbe11C5A99641861339a9e7A1e5c72aff18",
      "function": "setToSell(address,uint256,uint256)",
      "arguments": [
        "0x0bC0cdFDd36fc411C83221A348230Da5D3DfA89e",
        "1494",
        "200000000000000000000"
      ],
      "transaction": {
        "type": "0x00",
        "from": "0x3a47a5be317dcf439f91d0a45716b64547f21bc1",
        "to": "0x9491efbe11c5a99641861339a9e7a1e5c72aff18",
        "gas": "0x11b06",
        "value": "0x0",
        "data": "0x2295c3bd0000000000000000000000000bc0cdfdd36fc411c83221a348230da5d3dfa89e00000000000000000000000000000000000000000000000000000000000005d600000000000000000000000000000000000000000000000ad78ebc5ac6200000",
        "nonce": "0x951"
      },
      "additionalContracts": [],
      "isFixedGasLimit": false
    }
  ],
  "receipts": [
    {
      "transactionHash": "0x8b6fc5d6222fb596966d7205f88759eb4b2fb6826e2674972cf530b62dd19bb2",
      "transactionIndex": "0x0",
      "blockHash": "0x61a3f54cc55326e826964b5ad9eacd057e9bf7fe8bada2d06ea6a8d23a6a6956",
      "blockNumber": "0x31b2668",
      "from": "0x3A47a5be317DCF439F91D0A45716B64547F21bc1",
      "to": "0x0bC0cdFDd36fc411C83221A348230Da5D3DfA89e",
      "cumulativeGasUsed": "0x6fcc",
      "gasUsed": "0x6fcc",
      "contractAddress": null,
      "logs": [
        {
          "address": "0x0bC0cdFDd36fc411C83221A348230Da5D3DfA89e",
          "topics": [
            "0x17307eab39ab6107e8899845ad3d59bd9653f200f220920489ca2b5937696c31",
            "0x0000000000000000000000003a47a5be317dcf439f91d0a45716b64547f21bc1",
            "0x0000000000000000000000009491efbe11c5a99641861339a9e7a1e5c72aff18"
          ],
          "data": "0x0000000000000000000000000000000000000000000000000000000000000001",
          "blockHash": "0x61a3f54cc55326e826964b5ad9eacd057e9bf7fe8bada2d06ea6a8d23a6a6956",
          "blockNumber": "0x31b2668",
          "transactionHash": "0x8b6fc5d6222fb596966d7205f88759eb4b2fb6826e2674972cf530b62dd19bb2",
          "transactionIndex": "0x0",
          "logIndex": "0x0",
          "removed": false
        }
      ],
      "status": "0x1",
      "logsBloom": "0x00000000000000000000000000000000000000000000000800000000000000000000000000000000000000000000000000000000000000000000000080000000000000000000000000000000000000800001010000000000000000040000000002000000000000000000000000000000000000000000000000000200000000000000000000000008000000000000000000000000000000000000000000000000000000000000000000000020000000000000000000000000000000000000000000000000000000000000000000000000000000000000000000000000000000000000200800000000000000000000000000000000000000000000000000000000"
    },
    {
      "transactionHash": "0x536938cbfdb5c7e167aa8ad131c63c6b3f2e438e1967881ebc1f39fec37030ef",
      "transactionIndex": "0x1",
      "blockHash": "0x61a3f54cc55326e826964b5ad9eacd057e9bf7fe8bada2d06ea6a8d23a6a6956",
      "blockNumber": "0x31b2668",
      "from": "0x3A47a5be317DCF439F91D0A45716B64547F21bc1",
      "to": "0x9491EFbe11C5A99641861339a9e7A1e5c72aff18",
      "cumulativeGasUsed": "0x1198c",
      "gasUsed": "0xa9c0",
      "contractAddress": null,
      "logs": [
        {
          "address": "0x9491EFbe11C5A99641861339a9e7A1e5c72aff18",
          "topics": [
            "0x6bf1757145125508e9809d083ac4404861803c9e3f51dcfa27647a7080dc5453",
            "0x0000000000000000000000000bc0cdfdd36fc411c83221a348230da5d3dfa89e",
            "0x00000000000000000000000000000000000000000000000000000000000005d6"
          ],
          "data": "0x00000000000000000000000000000000000000000000000ad78ebc5ac6200000",
          "blockHash": "0x61a3f54cc55326e826964b5ad9eacd057e9bf7fe8bada2d06ea6a8d23a6a6956",
          "blockNumber": "0x31b2668",
          "transactionHash": "0x536938cbfdb5c7e167aa8ad131c63c6b3f2e438e1967881ebc1f39fec37030ef",
          "transactionIndex": "0x1",
          "logIndex": "0x1",
          "removed": false
        }
      ],
      "status": "0x1",
      "logsBloom": "0x00000000000000000000000000000000000000000000000000000000000000400000000000000200000000000000000000000000000000000000000000000000000000000000000000000000100000000000000000000000000000000000000040000000000000000000000000000000000000008000000000000000000000000000000000000000000000000000000000020000000200000000000000000000000000000000000000000000000000000000000000000000000000000010000000000004000010000000000000000000000000000081000000000000000000000000000000000000000000000000000000000000000000000000000000000000"
    }
  ],
  "libraries": [],
  "pending": [],
  "returns": {},
  "timestamp": 1704802385,
  "chain": 1666600000,
  "multi": false,
  "commit": "e6aaafa"
}