{
  "transactions": [
    {
      "hash": "0x4764342ebce30cc41127271c55097b3a749648fb0477f5ed420c8666cc81d3b3",
      "transactionType": "CALL",
      "contractName": null,
      "contractAddress": "0x0bC0cdFDd36fc411C83221A348230Da5D3DfA89e",
      "function": "setApprovalForAll(address,bool)",
      "arguments": [
        "0x48CBF95689F7B2769f18eE397BB950d9CE69599D",
        "true"
      ],
      "transaction": {
        "type": "0x00",
        "from": "0x3b6c33a0d24d2f338aeded306c6d271a1d4d1ba1",
        "to": "0x0bc0cdfdd36fc411c83221a348230da5d3dfa89e",
        "gas": "0x1214e",
        "value": "0x0",
        "data": "0xa22cb46500000000000000000000000048cbf95689f7b2769f18ee397bb950d9ce69599d0000000000000000000000000000000000000000000000000000000000000001",
        "nonce": "0x2"
      },
      "additionalContracts": [],
      "isFixedGasLimit": false
    },
    {
      "hash": "0xede5a3d987177376ee9b9ce527487e5302dcbe0583bbcd86938adfbbd338d763",
      "transactionType": "CALL",
      "contractName": null,
      "contractAddress": "0x48CBF95689F7B2769f18eE397BB950d9CE69599D",
      "function": "setToSell(address,uint256,uint256)",
      "arguments": [
        "0x0bC0cdFDd36fc411C83221A348230Da5D3DfA89e",
        "1423",
        "1000000000000000000"
      ],
      "transaction": {
        "type": "0x00",
        "from": "0x3b6c33a0d24d2f338aeded306c6d271a1d4d1ba1",
        "to": "0x48cbf95689f7b2769f18ee397bb950d9ce69599d",
        "gas": "0x180e0",
        "value": "0x0",
        "data": "0x2295c3bd0000000000000000000000000bc0cdfdd36fc411c83221a348230da5d3dfa89e000000000000000000000000000000000000000000000000000000000000058f0000000000000000000000000000000000000000000000000de0b6b3a7640000",
        "nonce": "0x3"
      },
      "additionalContracts": [],
      "isFixedGasLimit": false
    }
  ],
  "receipts": [
    {
      "transactionHash": "0x4764342ebce30cc41127271c55097b3a749648fb0477f5ed420c8666cc81d3b3",
      "transactionIndex": "0x2",
      "blockHash": "0x422f16f021838fa7620de6c6e9a53b85fbefe626eb3179366022e0b1ffaeb111",
      "blockNumber": "0x313e98d",
      "from": "0x3b6c33A0D24d2f338AedeD306C6d271a1d4D1BA1",
      "to": "0x0bC0cdFDd36fc411C83221A348230Da5D3DfA89e",
      "cumulativeGasUsed": "0x432d1",
      "gasUsed": "0xbacc",
      "contractAddress": null,
      "logs": [
        {
          "address": "0x0bC0cdFDd36fc411C83221A348230Da5D3DfA89e",
          "topics": [
            "0x17307eab39ab6107e8899845ad3d59bd9653f200f220920489ca2b5937696c31",
            "0x0000000000000000000000003b6c33a0d24d2f338aeded306c6d271a1d4d1ba1",
            "0x00000000000000000000000048cbf95689f7b2769f18ee397bb950d9ce69599d"
          ],
          "data": "0x0000000000000000000000000000000000000000000000000000000000000001",
          "blockHash": "0x422f16f021838fa7620de6c6e9a53b85fbefe626eb3179366022e0b1ffaeb111",
          "blockNumber": "0x313e98d",
          "transactionHash": "0x4764342ebce30cc41127271c55097b3a749648fb0477f5ed420c8666cc81d3b3",
          "transactionIndex": "0x2",
          "logIndex": "0x2",
          "removed": false
        }
      ],
      "status": "0x1",
      "logsBloom": "0x00000000000000000000000000000000000000000000000000000000000000000000000000000000000000000000000000000000000000000000000000000000000000000000020800000000000000800000000000000000000000040000200002000000000000000000000000080000000000000000000000000000000000000000000000000008000000000000000000000000000000000000000000000000000000000000002000000000000000000000000000000000000000000000000000000000000000000000000000000000000000000000000000000000000000000000200800000000000000000000000000000000000000000000000000000008"
    },
    {
      "transactionHash": "0xede5a3d987177376ee9b9ce527487e5302dcbe0583bbcd86938adfbbd338d763",
      "transactionIndex": "0x3",
      "blockHash": "0x422f16f021838fa7620de6c6e9a53b85fbefe626eb3179366022e0b1ffaeb111",
      "blockNumber": "0x313e98d",
      "from": "0x3b6c33A0D24d2f338AedeD306C6d271a1d4D1BA1",
      "to": "0x48CBF95689F7B2769f18eE397BB950d9CE69599D",
      "cumulativeGasUsed": "0x52097",
      "gasUsed": "0xedc6",
      "contractAddress": null,
      "logs": [
        {
          "address": "0x48CBF95689F7B2769f18eE397BB950d9CE69599D",
          "topics": [
            "0x6bf1757145125508e9809d083ac4404861803c9e3f51dcfa27647a7080dc5453",
            "0x0000000000000000000000000bc0cdfdd36fc411c83221a348230da5d3dfa89e",
            "0x000000000000000000000000000000000000000000000000000000000000058f"
          ],
          "data": "0x0000000000000000000000000000000000000000000000000de0b6b3a7640000",
          "blockHash": "0x422f16f021838fa7620de6c6e9a53b85fbefe626eb3179366022e0b1ffaeb111",
          "blockNumber": "0x313e98d",
          "transactionHash": "0xede5a3d987177376ee9b9ce527487e5302dcbe0583bbcd86938adfbbd338d763",
          "transactionIndex": "0x3",
          "logIndex": "0x3",
          "removed": false
        }
      ],
      "status": "0x1",
      "logsBloom": "0x00000000000000000000000000000000000000000100000000000000000000400000000000000200000000000000000000000000000000000000000000000000000000000000000000000000100000000080000000000000000000000000000000000000000000000000000000000000000000008000000000000000000000000000000000000000000000000008000000000000000200000000000000000000000000000000000000000000000000000000000000400000000000000800000000000000000000000000000000000001000000000001000000000000000000000000000000000000000000000000000000000000000000000000000000000000"
    }
  ],
  "libraries": [],
  "pending": [],
  "returns": {},
  "timestamp": 1703853373,
  "chain": 1666600000,
  "multi": false,
  "commit": "5445cfb"
}