{
  "transactions": [
    {
      "hash": "0x8326e96d768ea003a9dbe32070a3e547861f343229282a0a74c740742c418652",
      "transactionType": "CALL",
      "contractName": null,
      "contractAddress": "0x0bC0cdFDd36fc411C83221A348230Da5D3DfA89e",
      "function": "setApprovalForAll(address,bool)",
      "arguments": [
        "0x48CBF95689F7B2769f18eE397BB950d9CE69599D",
        "true"
      ],
      "transaction": {
        "type": "0x00",
        "from": "0x3a47a5be317dcf439f91d0a45716b64547f21bc1",
        "to": "0x0bc0cdfdd36fc411c83221a348230da5d3dfa89e",
        "gas": "0xb5ef",
        "value": "0x0",
        "data": "0xa22cb46500000000000000000000000048cbf95689f7b2769f18ee397bb950d9ce69599d0000000000000000000000000000000000000000000000000000000000000001",
        "nonce": "0x94a"
      },
      "additionalContracts": [],
      "isFixedGasLimit": false
    },
    {
      "hash": "0x99001a1b02fda0db4033ad9c94dda6e45775bb222101c6f73c8f17c0f1a39a6c",
      "transactionType": "CALL",
      "contractName": null,
      "contractAddress": "0x48CBF95689F7B2769f18eE397BB950d9CE69599D",
      "function": "setToSell(address,uint256,uint256)",
      "arguments": [
        "0x0bC0cdFDd36fc411C83221A348230Da5D3DfA89e",
        "1494",
        "200000000000000000000"
      ],
      "transaction": {
        "type": "0x00",
        "from": "0x3a47a5be317dcf439f91d0a45716b64547f21bc1",
        "to": "0x48cbf95689f7b2769f18ee397bb950d9ce69599d",
        "gas": "0x16b8e",
        "value": "0x0",
        "data": "0x2295c3bd0000000000000000000000000bc0cdfdd36fc411c83221a348230da5d3dfa89e00000000000000000000000000000000000000000000000000000000000005d600000000000000000000000000000000000000000000000ad78ebc5ac6200000",
        "nonce": "0x94b"
      },
      "additionalContracts": [],
      "isFixedGasLimit": false
    }
  ],
  "receipts": [
    {
      "transactionHash": "0x8326e96d768ea003a9dbe32070a3e547861f343229282a0a74c740742c418652",
      "transactionIndex": "0x1",
      "blockHash": "0xb681ec8b9f65f528583d8666789706ce2df812adf93da6e351191bc35cf75237",
      "blockNumber": "0x313ecc4",
      "from": "0x3A47a5be317DCF439F91D0A45716B64547F21bc1",
      "to": "0x0bC0cdFDd36fc411C83221A348230Da5D3DfA89e",
      "cumulativeGasUsed": "0xfc2f",
      "gasUsed": "0x6fcc",
      "contractAddress": null,
      "logs": [
        {
          "address": "0x0bC0cdFDd36fc411C83221A348230Da5D3DfA89e",
          "topics": [
            "0x17307eab39ab6107e8899845ad3d59bd9653f200f220920489ca2b5937696c31",
            "0x0000000000000000000000003a47a5be317dcf439f91d0a45716b64547f21bc1",
            "0x00000000000000000000000048cbf95689f7b2769f18ee397bb950d9ce69599d"
          ],
          "data": "0x0000000000000000000000000000000000000000000000000000000000000001",
          "blockHash": "0xb681ec8b9f65f528583d8666789706ce2df812adf93da6e351191bc35cf75237",
          "blockNumber": "0x313ecc4",
          "transactionHash": "0x8326e96d768ea003a9dbe32070a3e547861f343229282a0a74c740742c418652",
          "transactionIndex": "0x1",
          "logIndex": "0x1",
          "removed": false
        }
      ],
      "status": "0x1",
      "logsBloom": "0x00000000000000000000000000000000000000000000000800000000000000000000000000000000000000000000000000000000000000000000000000000000000000000000000000000000000000800001000000000000000000040000200002000000000000000000000000000000000000000000000000000200000000000000000000000008000000000000000000000000000000000000000000000000000000000000002000000000000000000000000000000000000000000000000000000000000000000000000000000000000000000000000000000000000000000000200800000000000000000000000000000000000000000000000000000008"
    },
    {
      "transactionHash": "0x99001a1b02fda0db4033ad9c94dda6e45775bb222101c6f73c8f17c0f1a39a6c",
      "transactionIndex": "0x2",
      "blockHash": "0xb681ec8b9f65f528583d8666789706ce2df812adf93da6e351191bc35cf75237",
      "blockNumber": "0x313ecc4",
      "from": "0x3A47a5be317DCF439F91D0A45716B64547F21bc1",
      "to": "0x48CBF95689F7B2769f18eE397BB950d9CE69599D",
      "cumulativeGasUsed": "0x1ea01",
      "gasUsed": "0xedd2",
      "contractAddress": null,
      "logs": [
        {
          "address": "0x48CBF95689F7B2769f18eE397BB950d9CE69599D",
          "topics": [
            "0x6bf1757145125508e9809d083ac4404861803c9e3f51dcfa27647a7080dc5453",
            "0x0000000000000000000000000bc0cdfdd36fc411c83221a348230da5d3dfa89e",
            "0x00000000000000000000000000000000000000000000000000000000000005d6"
          ],
          "data": "0x00000000000000000000000000000000000000000000000ad78ebc5ac6200000",
          "blockHash": "0xb681ec8b9f65f528583d8666789706ce2df812adf93da6e351191bc35cf75237",
          "blockNumber": "0x313ecc4",
          "transactionHash": "0x99001a1b02fda0db4033ad9c94dda6e45775bb222101c6f73c8f17c0f1a39a6c",
          "transactionIndex": "0x2",
          "logIndex": "0x2",
          "removed": false
        }
      ],
      "status": "0x1",
      "logsBloom": "0x00000000000000000000000000000000000000000100000000000000000000400000000000000200000000000000000000000000000000000000000000000000000000000000000000000000100000000000000000000000000000000000000000000000000000000000000000000000000000008000000000000000000000000000000000000000000000000008000000020000000200000000000000000000000000000000000000000000000000000000000000000000000000000010000000000000000000000000000000000001000000000081000000000000000000000000000000000000000000000000000000000000000000000000000000000000"
    }
  ],
  "libraries": [],
  "pending": [],
  "returns": {},
  "timestamp": 1703855020,
  "chain": 1666600000,
  "multi": false,
  "commit": "5445cfb"
}