{
  "transactions": [
    {
      "hash": "0xbe53fc95cf9ec3ec13dcf52f9658aacd5a9db37e70adcd04b13cd1b6aaa4fd3c",
      "transactionType": "CALL",
      "contractName": null,
      "contractAddress": "0x0bC0cdFDd36fc411C83221A348230Da5D3DfA89e",
      "function": "setApprovalForAll(address,bool)",
      "arguments": [
        "0x48CBF95689F7B2769f18eE397BB950d9CE69599D",
        "true"
      ],
      "transaction": {
        "type": "0x00",
        "from": "0x3a47a5be317dcf439f91d0a45716b64547f21bc1",
        "to": "0x0bc0cdfdd36fc411c83221a348230da5d3dfa89e",
        "gas": "0x1214e",
        "value": "0x0",
        "data": "0xa22cb46500000000000000000000000048cbf95689f7b2769f18ee397bb950d9ce69599d0000000000000000000000000000000000000000000000000000000000000001",
        "nonce": "0x948"
      },
      "additionalContracts": [],
      "isFixedGasLimit": false
    },
    {
      "hash": "0x8a56eb07dc083d258e65551d44d7a210163b3adc110d1977b7eb2a8ea4eb36f6",
      "transactionType": "CALL",
      "contractName": null,
      "contractAddress": "0x48CBF95689F7B2769f18eE397BB950d9CE69599D",
      "function": "setToSell(address,uint256,uint256)",
      "arguments": [
        "0x0bC0cdFDd36fc411C83221A348230Da5D3DfA89e",
        "1423",
        "100000000000000000000"
      ],
      "transaction": {
        "type": "0x00",
        "from": "0x3a47a5be317dcf439f91d0a45716b64547f21bc1",
        "to": "0x48cbf95689f7b2769f18ee397bb950d9ce69599d",
        "gas": "0x16b8e",
        "value": "0x0",
        "data": "0x2295c3bd0000000000000000000000000bc0cdfdd36fc411c83221a348230da5d3dfa89e000000000000000000000000000000000000000000000000000000000000058f0000000000000000000000000000000000000000000000056bc75e2d63100000",
        "nonce": "0x949"
      },
      "additionalContracts": [],
      "isFixedGasLimit": false
    }
  ],
  "receipts": [
    {
      "transactionHash": "0xbe53fc95cf9ec3ec13dcf52f9658aacd5a9db37e70adcd04b13cd1b6aaa4fd3c",
      "transactionIndex": "0x3",
      "blockHash": "0x4abae4157fecc8b1332f9e5b942f0a3f0e8ab82565b8da25979b5995df0d4ca7",
      "blockNumber": "0x313ec73",
      "from": "0x3A47a5be317DCF439F91D0A45716B64547F21bc1",
      "to": "0x0bC0cdFDd36fc411C83221A348230Da5D3DfA89e",
      "cumulativeGasUsed": "0x4d63d",
      "gasUsed": "0xbacc",
      "contractAddress": null,
      "logs": [
        {
          "address": "0x0bC0cdFDd36fc411C83221A348230Da5D3DfA89e",
          "topics": [
            "0x17307eab39ab6107e8899845ad3d59bd9653f200f220920489ca2b5937696c31",
            "0x0000000000000000000000003a47a5be317dcf439f91d0a45716b64547f21bc1",
            "0x00000000000000000000000048cbf95689f7b2769f18ee397bb950d9ce69599d"
          ],
          "data": "0x0000000000000000000000000000000000000000000000000000000000000001",
          "blockHash": "0x4abae4157fecc8b1332f9e5b942f0a3f0e8ab82565b8da25979b5995df0d4ca7",
          "blockNumber": "0x313ec73",
          "transactionHash": "0xbe53fc95cf9ec3ec13dcf52f9658aacd5a9db37e70adcd04b13cd1b6aaa4fd3c",
          "transactionIndex": "0x3",
          "logIndex": "0x5",
          "removed": false
        }
      ],
      "status": "0x1",
      "logsBloom": "0x00000000000000000000000000000000000000000000000800000000000000000000000000000000000000000000000000000000000000000000000000000000000000000000000000000000000000800001000000000000000000040000200002000000000000000000000000000000000000000000000000000200000000000000000000000008000000000000000000000000000000000000000000000000000000000000002000000000000000000000000000000000000000000000000000000000000000000000000000000000000000000000000000000000000000000000200800000000000000000000000000000000000000000000000000000008"
    },
    {
      "transactionHash": "0x8a56eb07dc083d258e65551d44d7a210163b3adc110d1977b7eb2a8ea4eb36f6",
      "transactionIndex": "0x4",
      "blockHash": "0x4abae4157fecc8b1332f9e5b942f0a3f0e8ab82565b8da25979b5995df0d4ca7",
      "blockNumber": "0x313ec73",
      "from": "0x3A47a5be317DCF439F91D0A45716B64547F21bc1",
      "to": "0x48CBF95689F7B2769f18eE397BB950d9CE69599D",
      "cumulativeGasUsed": "0x5c40f",
      "gasUsed": "0xedd2",
      "contractAddress": null,
      "logs": [
        {
          "address": "0x48CBF95689F7B2769f18eE397BB950d9CE69599D",
          "topics": [
            "0x6bf1757145125508e9809d083ac4404861803c9e3f51dcfa27647a7080dc5453",
            "0x0000000000000000000000000bc0cdfdd36fc411c83221a348230da5d3dfa89e",
            "0x000000000000000000000000000000000000000000000000000000000000058f"
          ],
          "data": "0x0000000000000000000000000000000000000000000000056bc75e2d63100000",
          "blockHash": "0x4abae4157fecc8b1332f9e5b942f0a3f0e8ab82565b8da25979b5995df0d4ca7",
          "blockNumber": "0x313ec73",
          "transactionHash": "0x8a56eb07dc083d258e65551d44d7a210163b3adc110d1977b7eb2a8ea4eb36f6",
          "transactionIndex": "0x4",
          "logIndex": "0x6",
          "removed": false
        }
      ],
      "status": "0x1",
      "logsBloom": "0x00000000000000000000000000000000000000000100000000000000000000400000000000000200000000000000000000000000000000000000000000000000000000000000000000000000100000000080000000000000000000000000000000000000000000000000000000000000000000008000000000000000000000000000000000000000000000000008000000000000000200000000000000000000000000000000000000000000000000000000000000400000000000000800000000000000000000000000000000000001000000000001000000000000000000000000000000000000000000000000000000000000000000000000000000000000"
    }
  ],
  "libraries": [],
  "pending": [],
  "returns": {},
  "timestamp": 1703854857,
  "chain": 1666600000,
  "multi": false,
  "commit": "5445cfb"
}